:020000040800F2
:10000000D8280020A5010008F32700086126000871
:10001000F1270008ED070008BD34000800000000CB
:10002000000000000000000000000000D72F0008C2
:10003000AD0800080000000015280008D92F0008AE
:10004000BF010008BF010008BF010008BF01000890
:10005000BF010008BF010008BF010008BF01000880
:10006000BF010008BF010008BF010008BF01000870
:10007000BF010008BF010008BF010008BF01000860
:10008000BF010008BF010008BF010008BF01000850
:10009000BF010008BF010008BF010008BF01000840
:1000A000BF010008BF010008BF010008BF01000830
:1000B000D9300008BF010008BF010008BF010008D7
:1000C000BF010008BF010008BF010008BF01000810
:1000D000BF010008BF010008BF010008BF01000800
:1000E000BF010008BF010008BF010008BF010008F0
:1000F000BF010008BF010008BF010008BF010008E0
:10010000BF01000859280008BF010008BF0100080E
:10011000BF010008BF010008BF010008BF010008BF
:10012000BF010008BF010008BF010008F107000877
:10013000BF010008BF010008BF010008BF0100089F
:10014000BF010008BF010008BF010008BF0100088F
:10015000BF010008FD070008BF010008BF0100083B
:10016000BF010008BF010008BF010008BF0100086F
:10017000BF010008BF010008BF0100080000000027
:10018000BF010008BF010008DFF80CD000F08CFAB6
:1001900000480047D9510008D828002080F308887B
:1001A000704700000648804706480047FEE7FEE724
:1001B000FEE7FEE7FEE7FEE7FEE7FEE7FEE7FEE717
:1001C00085300008890100082DE9F04D81EA03041B
:1001D00004F0004B21F0004514464FF0000A23F0D4
:1001E000004150EA050220D054EA01021DD0C5F3B7
:1001F0000A570246C5F31303C1F31300C1F30A56AD
:1002000040F4801543F48013A7EB0608101BD64674
:1002100008F2FD3873EB050002D308F1010801E094
:1002200092185B41B8F1000F03DA00200146BDE8E7
:10023000F08D00204FF48011064684460EE0171B17
:1002400073EB050705D3121B63EB050306434CEA6A
:10025000010C49084FEA300092185B4150EA01074F
:10026000EDD152EA030012D082EA040083EA0501CC
:10027000084305D0101BAB4106D20122002306E043
:1002800000224FF0004302E06FF0010253101AEB1E
:1002900006004CEB085110EB0A0041EB0B01BDE8E6
:1002A000F04D00F05AB800F0004230F000400AD0A3
:1002B000C10D01F56071C0F3160042EA0151C20898
:1002C00040071143704700200146704730B50B4688
:1002D000014600202022012409E021FA02F59D4276
:1002E00005D303FA02F5491B04FA02F52844151E4A
:1002F000A2F10102F1DC30BD2DE9F05F05460020DE
:1003000092469B4688460646814640241BE0284686
:1003100041464746224600F0E8F953465A46C01A7D
:10032000914110D311461846224600F0CFF92D1AFC
:1003300067EB01084F4622460120002100F0C6F974
:1003400017EB00094E41201EA4F10104DFDC4846F2
:1003500031462A464346BDE8F09F10B5141E73F19E
:10036000000408DA401C41F1000192185B411A4375
:1003700001D120F0010010BD2DE9F04D92469B46C1
:1003800011B1B1FA81F202E0B0FA80F22032904667
:1003900000F09CF904460F4640EA0A0041EA0B01CE
:1003A00053465A46084313D0114653EA010019D068
:1003B000C8F14002504600F098F905460E465046F6
:1003C0005946424600F082F9084305D0012004E076
:1003D00020463946BDE8F08D0020054346EAE07628
:1003E0002C4337430A986305E40AA0EB0800002277
:1003F000FD0A44EA47540A3002D500200146E9E7E5
:10040000010510196941DDE9084500196941BDE898
:10041000F04DA2E72DE9FE4F804681EA0300C00FB0
:100420000C46009021F0004123F00045B8EB02009B
:10043000A94105D24046214690461C460B4602463D
:1004400023F00040104347D0270DC7F30A00C3F341
:100450000A510290401A019040286BDAC3F313004E
:1004600040F4801B0098924620B10023D2EB030A8F
:1004700063EB0B0B01985946C0F14002504600F067
:1004800025F906460D4650465946019A00F03DF9B9
:1004900010EB08006141002487EA115284EAE773F7
:1004A0001A4340D0009A62B3019A012A4FEA0752D8
:1004B00015DC001B61EB02014FF0004202EA07521B
:1004C000CDE90042001C41F5801132462B46FFF772
:1004D00053FF03B0BDE8F08F40462146F9E7001B0B
:1004E00061EB0201001C41F5801300185B412018EC
:1004F000A2F5001747EB030140EAD570B6196D412C
:1005000011E06D084FEA360645EAC0754FEA07521A
:10051000001B61EB0201001C41F5801149084FEA04
:1005200030000019514132462B4603B0BDE8F04F70
:10053000FFF713BF0098012240000023D0EB020216
:1005400063EBE073009821464FEAE074B8EB0000DB
:1005500061EB0401E9E783F000435BE781F00041D0
:1005600058E72DE9FE4F81EA030404F0004421F02E
:10057000004100944FF0000B23F0004350EA0104C7
:100580005ED052EA03045BD0C3F30A54C1F30A55A8
:100590002C44A4F2F3340194A0FB0254C1F31301E0
:1005A00041F48011C3F3130343F4801301FB0244AD
:1005B00000FB034E840A970A44EA815447EA8357B2
:1005C000A4FB076802958D0A05FB07854FEA932C6B
:1005D00004FB0C542705029D4FEA065847EA1637DC
:1005E000B5EB08056EEB070C870E920E47EA8117F4
:1005F00042EA8312A7FB0201B6EB0B0164EB000495
:100600002B0D43EA0C335E1844EB1C50DA4651467E
:10061000E7FB0201C5F313044FEA0B3343EA14531B
:100620004FEA0432019C43EA0603A4F10C0402944D
:10063000009CCDE900B4FFF79FFE03B0BDE8F08F4A
:1006400000200146F9E7C1F30A52C1F3130140F259
:10065000FF3341F480119A4202DA002001467047CC
:1006600040F233439A42A2F2334202DC524200F09B
:100670003CB800F02BB8000030B5041E71F1000446
:1006800004DB4FF00044404264EB0101141E73F19F
:10069000000405DB1C464FF00043524263EB0403A9
:1006A000994208BF904230BD064C074D06E0E06815
:1006B00040F0010394E8070098471034AC42F6D3A9
:1006C000FFF766FD4405030864050308202A04DBE0
:1006D000203A00FA02F1002070479140C2F1200355
:1006E00020FA03F3194390407047202A04DB203A94
:1006F00021FA02F00021704721FA02F3D040C2F142
:1007000020029140084319467047202A06DBCB1788
:10071000203A41FA02F043EAE07306E041FA02F3BC
:10072000D040C2F1200291400843194670470000B2
:100730000146014801F0B4B9DC060020014801F08F
:1007400088B90000DC06002038B501208DF80000D3
:100750009DF80000012801D0012038BD0749084854
:1007600001F036FB040006D14FF40061044801F0AB
:1007700095FC00B10124204638BD0000000800208F
:10078000DC0600207CB50024DDE90615CDE9001566
:100790000146074801F0F4FB08B1012405E00549D2
:1007A000034801F0EDF80028F7D120467CBD000099
:1007B000DC06002000E1F5057CB50024DDE9061526
:1007C000CDE900150146074801F098FC08B1012465
:1007D00005E00549034801F002F90028F7D1204659
:1007E0007CBD0000DC06002000E1F505FEE700000E
:1007F000014800F07FBA00003C070020014800F0EB
:1008000079BA00009C07002001681823CAB2103A88
:10081000B2FBF3F2054B6FF30901032A9B5CC3653E
:1008200000D9091D8165084670470000145800086A
:1008300010B5014600208B698A6A4FF0C07453B12D
:10084000B3F5005F15D072B1012A0CD0022A0AD08C
:10085000032A09D104E01AB1012A06D0022A03D1E1
:10086000C96AC90100D5012010BDC96AA142FAD0E8
:1008700010BD002AF7D0012AF2D0022AF3D0032AB1
:10088000F3D010BD30B50468256825F480252560B7
:10089000046863608368402B036803D09960006834
:1008A000C26030BD9A600068C16030BD7047000012
:1008B000164D2878052826D2DFE800F00305071F2B
:1008C000210013A01CE018A01AE01D4801F024FD2F
:1008D0001CA002F0F5FD214C206821490840B0F130
:1008E000005F0FD1606868611EA002F0E9FD20681A
:1008F000FFF754FC6869804704E021A000E026A0CF
:1009000002F0DEFDFEE72EA0FAE700000000002066
:10091000464C415348204572617365206572726F81
:10092000722E2E2E0D0A00004C696E6B20446973E6
:100930006B206572726F722E2E2E0D0A0000000061
:10094000580800204F70656E2046696C65206572FE
:10095000726F722E2E2E0D0A0000000000000A0891
:100960000000FE2F4A756D7020746F204170706C0E
:1009700069636174696F6E2E2E2E0D0A00000000EF
:10098000436F70792046696C65206572726F722EB4
:100990002E2E0D0A00000000436F6E6669677572A7
:1009A00065207468652073797374656D20636C6F5E
:1009B000636B206572726F722E2E2E0D0A0000007E
:1009C0004D61676963206572726F72205E5F5E2E93
:1009D0002E2E0D0A00000000002200F001B80000D9
:1009E00030B50E4B054601205C7A012C15D8587A9B
:1009F00000241C54587A03EB800045605D7A03F1B3
:100A000008002A54587A421C5A72303008703A2032
:100A100048702F208870CC70002030BDCC0800209A
:100A2000002229B101291FD0022920D04FF44072A1
:100A300010490B6823F440730B600B6813430B6081
:100A40000A6822F0F8020A600A68F82393FAA3F30E
:100A5000B3FA83F3984040F0020002430A6008684A
:100A600040F48030086070474FF48072E0E74FF444
:100A70000072DDE7103C02401348016889050FD57C
:100A8000016821F400710160016841F400610160B6
:100A9000016821F400610160016841F400710160A6
:100AA000016849050FD5016821F480610160016882
:100AB00041F480510160016821F4805101600168B6
:100AC00041F4806101607047003C024008490A68B7
:100AD00022F440720A600A6842F004020A600A685E
:100AE0004FF4803343EA002002430A60704700005D
:100AF000103C0240064A136823F4407313601368E5
:100B00001360136843F00103136001707047000025
:100B1000103C0240084910B50C6824F440740C6085
:100B20000C6844F440740C600C6844F001040C60E0
:100B30000260436010BD0000103C0240074A136889
:100B400023F440731360136843F4807313601368D5
:100B500043F001031360018070470000103C024025
:100B6000074A136823F440731360136843F4007357
:100B70001360136843F001031360016070470000C5
:100B8000103C02401F490868C043C2061E4805D4F5
:100B9000C26942F01002C26110220A600A68D243A0
:100BA000920605D4C26942F00802C26120220A609E
:100BB0000A68D243520605D4C26942F00402C261F7
:100BC00040220A600A68D243120605D4C26942F084
:100BD0000202C26180220A600A68D243D20506D4AA
:100BE000C26942F00102C2614FF480720A600A6871
:100BF000D243920705D4C26942F02002C2610220AA
:100C0000086070470C3C02409408002070B51349FE
:100C100004460020C86100F06DFB0646104D09E057
:100C2000601C07D024B100F065FB801BA04201D9F5
:100C3000032070BD2868C043C003F1D52868C007F1
:100C400001D00120286029684FF4F970884301D051
:100C5000002070BDFFF796FF012070BD94080020B2
:100C60000C3C02402DE9F0410446876D00F042FB48
:100C7000064694F835000025022806D080206065DD
:100C800084F834500120BDE8F0812068016821F02B
:100C9000160101602068416921F080014161206CEA
:100CA00008B9A06C20B12068016821F0080101603A
:100CB0002068016821F0010101600BE000F01AFBDF
:100CC000801B052806D92020606504F8345F0320C6
:100CD0006070D8E720680068C007EFD194F85C1016
:100CE0003F208840B86004F8345F01206070002025
:100CF000C9E700002DE9F84304464FF00008CDF89D
:100D0000008064484FF41651A56D0068B0FBF1F700
:100D10002E6894F85C10082000FA01F131420FD0DF
:100D200021680A6852070BD50A6822F004020A609B
:100D300094F85C108840A860606D40F00100606528
:100D400094F85C1054488840304208D021684969C2
:100D5000090604D5A860606D40F0020060654E4849
:100D600094F85C10C01C8840304208D021680968A3
:100D7000890704D5A860606D40F00400606594F8B0
:100D80005C1010208840304218D02168096809079B
:100D900014D5A86020680168490304D500680003E1
:100DA00008D5A16C07E00168C90503D4016821F0EA
:100DB00008010160216C09B12046884794F85C1055
:100DC0002020884030424FF0010631D02168096868
:100DD000C9062DD5A86094F835000528206801685B
:100DE00006D0490347D5006800031DD4616C1CE0A0
:100DF00021F0160101602068416921F08001416104
:100E0000206C08B9A06C20B12068016821F00801AD
:100E1000016094F85C103F208840A86084F834801A
:100E200084F83560216D1FE0E16B09B120468847E9
:100E3000606D00282BD0606DC00714D0052084F8A9
:100E400035002068016821F0010101600098401C14
:100E50000090B84203D820680068C007F6D184F833
:100E6000348084F83560E16C002910D001B0204650
:100E7000BDE8F04308470168C905D5D4016821F0F1
:100E80001001016084F8348084F83560CCE7BDE857
:100E9000F883000028000020010080002DE9F041C7
:100EA000044600F027FA06465CB1002584F8345069
:100EB000022084F835002068016821F001010160FA
:100EC0000DE00120BDE8F08100F014FA801B052838
:100ED00005D920206065032084F83500F2E72068FA
:100EE0000068C007F0D1226811681F480140D4E9AA
:100EF00001031843D4E903363343184363691843A5
:100F0000A3691843E3691843236A18430843616AD5
:100F1000042903D1D4E90B13194308431060206856
:100F20004069666A20F0070130460E430127042815
:100F30000AD1A06A06432046FFF77AFC20B1402080
:100F4000606584F83570BCE7206846612046FFF78D
:100F50005BFC94F85C203F2191408160656584F8DA
:100F600035700020AEE700003F8010F02DE9F04121
:100F70000446866D90F83400002501280DD001202C
:100F800084F8340094F835700020012F07D084F8DD
:100F9000340002252846BDE8F0810220FBE7022745
:100FA00084F8357060652046FFF76CFC94F85C109F
:100FB0003F208840B0602068016841F01601016060
:100FC0002068416941F080014161206C20B12068B6
:100FD000016841F0080101602068016841F00101E9
:100FE0000160D7E731B500F085F9044600F082F9D9
:100FF0000099001B8842F9D338BD00002DE9F04765
:10100000044622480F46017E01290AD0012180466C
:1010100001764CF250394846FFF7F8FD020003D044
:101020002FE00220BDE8F0874FF0FF3038602068E5
:10103000174D012801D0A6681CE0207C6168FFF7ED
:1010400045FD4846FFF7E2FD0246286820F004000F
:10105000286014E0217C3046FFF7E2FC4846FFF7A9
:10106000D5FD0200286820F0FA00286001D03E601B
:1010700005E0761CD4E902100844B042EAD8FFF734
:10108000FBFC002188F818101046CBE794080020DC
:10109000103C02402DE9F0471B4E05461446307EB9
:1010A0001F468946012808D0012030764CF250387E
:1010B0004046FFF7ABFD18B114E00220BDE8F08711
:1010C0009DB1012D16D0022D19D022463B4648462F
:1010D000FFF720FD4046FFF799FD0C490A6822F012
:1010E00001020A6000213176E8E7E1B24846FFF7E5
:1010F00001FDEFE7A1B24846FFF720FDEAE72146F0
:101100004846FFF72DFDE5E794080020103C02401B
:1011100006480068002807DA044805490C380160D1
:10112000044901600020704701207047103C0240D4
:1011300023016745AB89EFCD2DE9F84FDFF87CB18E
:1011400000224FF001084FF0030A4FF00F090BF196
:10115000040E00BF0B6808FA02F42340A3426ED1CC
:101160004D68022D01D0122D0ED1D50800EB850C53
:10117000DCF820505607F70E09FA07F6B5430E695A
:10118000BE402E43CCF82060066855000F790AFA5D
:1011900005FC07F0030726EA0C06AF40374307605B
:1011A0004E68012E05D0022E03D0112E01D0122E32
:1011B0000ED18668CF6826EA0C06AF4037438760B9
:1011C0004668A6430C79C4F3001494403443446049
:1011D000C6688C6826EA0C06AC403443C4604C6890
:1011E000E40065D5364C256845F4804525602468C3
:1011F00022F0030504F480440094324C2E19D6F8F2
:10120000084895072F0F09FA07F5AC432E4DA84261
:1012100001D1002524E02D4DA84201D101251FE078
:101220002B4DA84201D102251AE02A4DA84201D136
:10123000032515E0284DA84202D1042510E037E02F
:10124000264DA84201D105250AE0254DA84201D12D
:10125000062505E0234DA84201D1072500E0082519
:10126000BD402543C6F80858DBF800405D464E688F
:101270009C43F60300D51C432C60DEF80040754605
:101280004E689C43B60300D51C432C600B4D0835BB
:101290002C684E689C43F60200D51C432C60074D19
:1012A0000C352C684E689C43B60200D51C432C605C
:1012B000521C102AFFF44EAFBDE8F88F003C0140ED
:1012C0004438024000300140000002400004024067
:1012D00000080240000C02400010024000140240CE
:1012E00000180240001C02400AB1816170470904E5
:1012F000FBE7000001480068704700002400002060
:1013000002480168491C0160704700002400002069
:101310000B4810B5016841F400710160016841F4A7
:1013200080610160016841F480710160032000F078
:1013300075F8002000F006F800F018F8002010BD45
:10134000003C024010B5044607484FF47A7100682B
:10135000B0FBF1F000F05BFF00222146501E00F0D0
:101360003DF8002010BD00002800002010B503202B
:1013700000F054F8002211466FF00B0000F02EF838
:10138000002211466FF00A0000F028F800221146F2
:101390006FF0090000F022F800221146501F00F003
:1013A0001DF800221146101F00F018F80022114607
:1013B000901E00F013F80022BDE810401146501EA8
:1013C00000F00CB800F01F0201219140400980009C
:1013D00000F1E020C0F8001170470000F0B40E4B9F
:1013E0001B680C46C3F30223C3F10705042D00D983
:1013F0000425191D072901D2002300E0DB1E012668
:1014000006FA05F1491E214099409E40761E16407D
:101410003143F0BC01F0EEB90CED00E0064900F0FC
:10142000070208684FF6FF03184040EA0220034A0B
:1014300010430860704700000CED00E00000FA0562
:101440002DE9F047DFF8649105460F46D9F8000012
:1014500000F00F01F8B28046B94208D2014689F87F
:101460000010D9F8000000F00F00B84274D12878BD
:101470004F4C800705D52068A96820F0F00008438C
:1014800020602878C00759D0494968680839012880
:101490001AD002281BD0032819D00968890700290F
:1014A0005ADA216821F0030101432160FFF722FF8E
:1014B0006968064641F28830012911D002291DD001
:1014C0000329824627D035E009688903E7E70968E0
:1014D0008901E4E7FFF70EFF811B514501D926E0A2
:1014E00082462068C0F381000128F3D126E000BFC6
:1014F000FFF700FF811B514501D918E082462068A3
:10150000C0F381000228F3D118E000BFFFF7F2FE1C
:10151000811B51450BD82068C0F381000328F5D109
:101520000CE000BFFFF7E6FE811B514502D9032006
:10153000BDE8F087206810F00C0FF3D1D9F8001047
:10154000484601F00F01B94208D980F800800068D0
:1015500000F00F00B84201D00120E9E728784007E9
:1015600005D52068E96820F4E05008432060287819
:10157000000706D52068296920F4604040EAC100D0
:10158000206000F051F82168F02292FAA2F201F0F6
:10159000F001B2FA82F2D140064A515CC8400649D5
:1015A00008600020FFF7CEFE0020C1E7003C0240AB
:1015B000083802401C580008280000200148006834
:1015C00070470000280000200848094900680968A1
:1015D0004FF4E05292FAA2F201F4E051B2FA82F230
:1015E000D140044A515CC8407047000028000020E8
:1015F000083802401C580008084809490068096872
:101600004FF4604292FAA2F201F46041B2FA82F21F
:10161000D140044A515CC8407047000028000020B7
:10162000083802401C58000830B51948006810F00E
:101630000C01184812D0184C04290ED008290DD1DD
:101640001349091F0A6802F03F030A68550247F66A
:10165000C07204D5B4FBF3F003E0204630BDB0FB0C
:10166000F3F00B680968134092FAA2F2B2FA82F220
:10167000D34058434FF4403292FAA2F201F4403181
:10168000B2FA82F2D140491C4900B0FBF1F030BD02
:10169000083802400024F40040787D012DE9F84F1D
:1016A0000446DFF8CC820078A8F1040BC007ABF148
:1016B000040537D0D8F800104046C1F38101012954
:1016C00008D00068C0F3810002280AD1DBF80000CE
:1016D000400206D52868800324D56068002878D0A9
:1016E00020E0A3492079891F0870606868B1FFF77E
:1016F00001FE064605E000BFFFF7FCFD801B6428E5
:1017000068D828688003F7D50CE0FFF7F3FD06469C
:1017100005E000BFFFF7EEFD801B6428F0D82868C5
:101720008003F7D42078934E80074FF0010A4FF0E2
:10173000000742D5D8F80010404611F00C0F08D031
:101740000068C0F3810002280AD1DBF800004002E3
:1017500006D42868800714D5E068012839D110E044
:10176000E068D8B1C6F800A0FFF7C4FD814605E0E7
:10177000FFF7C0FDA0EB09000228C1D82868800748
:10178000F6D52868F82292FAA2F22169B2FA82F21A
:1017900020F0F8009140084328600EE03760FFF722
:1017A000A9FD814606E000BFFFF7A4FDA0EB0900FC
:1017B00002280FD828688007F6D42078000728D59B
:1017C0006D486169A1B1C0F800A0FFF793FD8146A3
:1017D00008E0CAE079E000BFFFF78CFDA0EB09004C
:1017E000022872D862486C3000688007F4D510E097
:1017F0000760FFF77FFD814606E000BFFFF77AFD37
:10180000A0EB0900022860D859486C3000688007B6
:10181000F4D42078400749D555483830016841F064
:1018200080510160006800F08050009053480168CA
:1018300041F480710160FFF75DFD814606E000BF65
:10184000FFF758FDA0EB090002283ED84B4800687E
:10185000C005F5D5DFF81891207A09F1680989F8F3
:101860000000A06888B1FFF745FD009008E000BFC8
:10187000FFF740FD0099411A41F2883081426CD84F
:10188000D9F800008007F3D510E0FFF733FD009092
:1018900008E000BFFFF72EFD0099411A41F28830A1
:1018A00081425AD8D9F800008007F3D4A069E0B388
:1018B000D8F80010C1F38101022956D002283766FA
:1018C00004D0FFF717FD04464AE046E0FFF712FD9B
:1018D000074604E0FFF70EFDC01B02283DD828682C
:1018E0008001F7D4D4E90701084347F6C07292FAA1
:1018F000A2F2616AB2FA82F29140A26A4FF0FF331B
:1019000003EB52024FF4403393FAA3F3B3FA83F399
:101910009A40114308434FF0706292FAA2F2E16AD2
:10192000B2FA82F29140084300E01CE0CBF80000DC
:10193000C6F860A0FFF7DEFC044604E0FFF7DAFC1F
:10194000001B022809D828688001F7D50BE000BFEA
:10195000FFF7D0FC001B022802D90320BDE8F88F56
:1019600028688001F4D40020F8E70120F6E70000A1
:101970000838024000004742800E47420070004095
:1019800070B5054600202E6D0A46AC6CEB6CDBB2E0
:1019900004E02E6DAC6CEB6C521EDBB226431E4392
:1019A00001D1002AF5D10C46296800E0641E4A6B7B
:1019B000920401D5002CF9D1696D012902D1284684
:1019C00000F056FB044300D104202A6840F2FF5186
:1019D0009163E96C002901D0E86CC0B270BD70B5AC
:1019E00004460026256D0846A36CE26CD2B204E0E2
:1019F000256DA36CE26C401ED2B21D43154301D18C
:101A00000028F5D10D46206800E06D1E416BC90429
:101A100001D5002DF9D1606D032803D1204600F0D7
:101A200027FB0646354300D10426216840F2FF50CB
:101A30008863E06C10B1E06CC0B270BD204600F06D
:101A400008F80028FAD1304670BD704770477047DB
:101A5000704710B50446808C86B0000400900D20BD
:101A6000019000214020CDE9020100010490694667
:101A7000206800F010FF0D21204600F01DFF68B91E
:101A8000002000F0E1FEC0F34320042804D0FF282A
:101A900004D0012006B010BD0020FBE70220F9E7CA
:101AA0002DE9F04790F8202081F85620828CA1F88B
:101AB0005420826A0027120E93090B70C2F383032D
:101AC0004B7002F003028A70826A120CCA70028D97
:101AD000120A0A7190F828204A71C26A4FF6FF7AFA
:101AE000120E0AEA0212CA80C26ACB88C2F3074207
:101AF00043EA1213CB8002F00F020A72828DC2F306
:101B00000723DA094A72C3F380128A72C3F34012C0
:101B1000CA72C3F300120A7300224A73046A4FF0B8
:101B20000109002C7DD0012CFCD0022C7AD0292771
:101B3000C3F380144C769B065B0E01F81A3F10F835
:101B4000303F0C7844EAD31401F8014B03F07F03D3
:101B500001F8013B50F8043F1B0EDC090C70C3F385
:101B600041144C70C3F382048C709B071B0FCB7025
:101B700008C8CC78C3F3074344EA9314CC70C3F38A
:101B800040140C714A7103F001028A7130F8042C80
:101B9000C2F30722D309CB71C2F380130B72C2F3D5
:101BA00040134B72C2F300138B72C2F38103CB72EA
:101BB00002F003020A7310F8042C52084A734B46D1
:101BC00081F80E9050F8082B120E0A7450F8082C69
:101BD000120C0AEA02224A8230F8082CC2F30724C7
:101BE0004A8A22434A8210F8082C120641F8142F20
:101BF00050F8042C0C68120E44EA02420A6050F8B5
:101C0000042C0C68C2F3074244EA02220A6030F84E
:101C1000042C0C68C2F30722144310C110F8042CE2
:101C200001E034E074E001F8012B0268120E01F8C3
:101C3000032B0268120C12060A6002880C68C2F3B9
:101C4000072244EA02420A6002780C6844EA02224F
:101C50000A6042680C6844EA126410C142680C7859
:101C6000C2F3074244EA121401F8024B1207120DA4
:101C70000A8082880C88C2F30722144321F8024BA1
:101C80000079400808704B703846BDE8F0879B0724
:101C90001B0D0B6190F82C300C6944EA83030B6137
:101CA000036B0C691B0E44EA93140C61C3F3C2046A
:101CB0000C7503F007034B75036BC3F307435C0913
:101CC0008C75C3F38204CC759B075B0F0B76038E78
:101CD0000C7EC3F3072344EAD3140C760D690E7E01
:101CE000B61C09FA06F46D1CA5FB046C02FB04CCBF
:101CF00005FB02C40D7A09FA05F8A6FB085C04FB93
:101D000008C406FB0244C1F85080C1E912540FE731
:101D100090F82C309B069B0A0B61036B0C691B0E21
:101D200044EA03230B61036B0C69C3F307431C43B1
:101D30000C61038E0C69C3F30723641C42F1000598
:101D4000ED0445EA5435E404C1E912454FF400744A
:101D50000C65EDE610B501680446486BC0050AD570
:101D60004FF4807088630120A0640020E064204666
:101D700000F03EFA25E0486B800702D50220886318
:101D80001BE0486B000703D508208863042014E09B
:101D9000486B800603D52020886306200DE0486B41
:101DA000C00603D510208863052006E0486B800537
:101DB00007D54FF4007088630720E064204600F0E8
:101DC00018FA2068C16B4CF23A329143C16310BDDE
:101DD00070B586B000240E4605468DF80C40047799
:101DE00000F046F876200094CDE9014023462246D3
:101DF0002146286800F036FD284600F057FF8DF890
:101E00000C009DF80C0038B9284600F0E0FE8DF873
:101E10000C009DF80C0018B19DF80C0006B070BDC8
:101E200031462846FFF73CFE8DF80C009DF80C006B
:101E3000A0B9B6F85400694600040090072001904C
:101E40004020CDE9020400010490286800F023FD41
:101E50000721284600F030FD8DF80C0005F1100038
:101E600007C88DE8070095E80F0000F0FBFCD3E7FA
:101E70002DE9F04F054600683B4987B0884270D194
:101E80003A480068394940F4006008600868032651
:101E900000F4006005904FF4F8500090022001908B
:101EA0000020CDE902060C24694604943048FFF76F
:101EB00043F904270220CDE900700020CDE9020695
:101EC000694604942B48FFF737F92C4C2A484FF009
:101ED0000068C4E900080020A060E06038022061CA
:101EE000C4E90976800004F114014FF480494FF0F1
:101EF000200A4FF4403B81E8010EC602470220460B
:101F0000C4E90B67FEF7CAFF08B1FEF7D1FCAC6568
:101F1000A5631A4C184860344830C4E900084020D2
:101F2000A0600020E0604FF48060206104F11401A3
:101F3000800081E8010E042060621431032081E8F2
:101F4000C1002046FEF7AAFF08B1FEF7B1FCEC6520
:101F5000002202213120A563FFF740FA3120FFF76C
:101F600031FA07B0BDE8F08F002C01404438024040
:101F700000080240000C0240586402403C07002068
:101F80002DE9F0478CB01546DDE9146704460A4692
:101F900021684FF000089A46C1F82C80C4F84880A8
:101FA000C4F85080C0F84C800120012F01D9606531
:101FB00001E0C4F854802168CB6B40F22A3C43EA2C
:101FC0000C03CB63274981460860A16D2648C8638E
:101FD000A16D2648C86406FB07F02168830880319C
:101FE000A06DFEF7C3FF206A022803D106026D0A26
:101FF00045EACA551020CDE900604020CDE902082D
:10200000000104906946206800F045FC102120463C
:1020100000F052FC002821D1401E7E43CDE9050688
:102020009020079008A9022081E8010305A92068F3
:1020300000F0F1FB012F01D9122000E01120CDE9C1
:1020400000506946206800F026FC012F01D91221BA
:1020500000E01121204600F02FFCE0640CB0BDE848
:10206000F08700008C852542852A0008992A0008FF
:1020700010B586B0044600200C21CDE900014021B6
:10208000CDE90210080104906946206800F003FCC5
:102090000C21204600F010FC06B010BDFEB5044631
:1020A000006A00250E46032805D030B1012804D06F
:1020B000022802D01FE02720FEBDB6F5805F05D0C4
:1020C000B6F5006F04D03EB1262514E0272512E0B6
:1020D000204600F0DEFE02E0204600F0A1FE0500F2
:1020E00009D1211DD4E905700EC90096CDE9017012
:1020F000206800F0B7FB2846FEBD00002DE9F04740
:102100008CB00446DDE91467154622684FF00008DC
:102110009A46C2F82C80C4F84880C4F85080C0F8B1
:102120004C80012F01D9032000E002206065206867
:10213000C26B40F21A331A43C263E26D2948D0637E
:10214000E26D2948D06406FB07F0226883088032DC
:10215000E06DFEF70BFF25494FF00109C1F8009033
:10216000206A022803D106026D0A45EACA551020EA
:10217000CDE900604020CDE90208000104906946E5
:10218000206800F088FB1021204600F095FB002815
:1021900024D1012F01D8182000E01920CDE90050EA
:1021A0006946206800F077FB012F01D9192100E072
:1021B0001821204600F080FB00280FD1401E7E43EE
:1021C000CDE905069020CDE90708CDE90989454606
:1021D00005A9206800F01FFBE56428460CB0BDE8A7
:1021E000F0870000A52A0008B92A00088C8525423E
:1021F000704770474FF0E0210428086903D020F0B1
:1022000004000861704740F00400FAE7704710B519
:10221000401EB0F1807F01D3012010BD4FF0E024BB
:1022200060610F21601700F0E5FA0020A06107202F
:102230002061002010BD10B5FFF7E8FF10BD70470A
:10224000704730B590F83820012A20D0012280F85C
:102250003820022380F8393003685C6824F0700469
:102260005C6003685C680D682C435C6003689C6874
:1022700024F080049C6003689C6849680C439C605F
:1022800080F83920002180F83810084630BD02203F
:1022900030BD10B5040003D094F8390010B107E048
:1022A000012010BD002084F83800204600F00CF812
:1022B000022084F83900211D206800F013FF01205E
:1022C00084F83900002010BD08B50068B0F1804FD7
:1022D00012D10A48016841F0010101600068002242
:1022E00000F00100009002211C20FFF777F8BDE804
:1022F00008401C20FFF766B808BD000040380240C7
:102300000168CA6842F00102CA600068016841F0D1
:1023100001010160002070470168CA6822F00102D3
:10232000CA600068016A41F21112114207D1016AC4
:102330009210114203D1016821F0010101600020D7
:10234000704770B5044690F83800012817D0012571
:1023500084F83850022084F839002068826822F01E
:10236000770222F47F4282600868502837D00DDC63
:10237000202859D005DC88B3102841D151E0022033
:1023800070BD302853D040283AD13FE060282ED08D
:1023900070280BD0B0F5805F03D0B0F5005F2FD16F
:1023A00010E02068816821F0070115E0CB68D1E9D1
:1023B0000121206800F0F6FE2168886840F077006F
:1023C00088601DE0CB68D1E90121206800F0EAFEB9
:1023D0002068816841F48041816011E01EE0CA6894
:1023E0004968206800F0F0FE5021206806E0CA68C5
:1023F0004968206800F0F9FE6021206800F0DCFEEA
:1024000084F83950002084F8380070BDCA684968E3
:10241000206800F0D9FE40212068EFE70021206805
:10242000ECE710212068E9E720212068E6E7302169
:102430002068E3E7704770B50446006801694FF013
:102440000005C943890715D4C168C943890711D458
:10245000E91E0161012020762068806980072046FE
:1024600002D0FFF7E7FF04E000F098F8204600F004
:1024700096F8257620680169C943490717D4C168D1
:10248000C943490713D46FF004010161022020768B
:102490002068806910F4407F204602D0FFF7CAFF11
:1024A00004E000F07BF8204600F079F825762068FB
:1024B0000169C943090716D4C168C943090712D481
:1024C0006FF008010161042020762068C069800750
:1024D000204602D0FFF7AEFF04E000F05FF8204690
:1024E00000F05DF8257620680169C943C90617D454
:1024F000C168C943C90613D46FF0100101610820F7
:1025000020762068C06910F4407F204602D0FFF793
:1025100091FF04E000F042F8204600F040F82576F4
:1025200020680169C943C90708D1C168C943C907FF
:1025300004D1891E0161204600F032F8206801694B
:10254000C943090609D4C168C943090605D46FF017
:10255000800101612046FFF772FE20680169C943CE
:10256000490609D4C168C943490605D46FF0400142
:102570000161204600F01CF820680169C943890602
:102580000BD4C168C943890607D46FF020010161EB
:102590002046BDE87040FFF753BE70BD70477047DE
:1025A00002480169491C01617047000000000020D9
:1025B000704770B5040004D094F83900002510B1BC
:1025C00006E0012070BD84F83850204600F022F863
:1025D000242084F839002068C16821F40051C160CA
:1025E000204600F015FE2068016921F49041016148
:1025F0002068416921F02A0141612068C16841F4E5
:102600000051C160E563202084F8390084F83A0065
:10261000002070BD00B500680E4987B0884217D110
:102620000D48016841F0100101600068694600F042
:10263000100005904FF4C06000900220019001202E
:10264000029003200390072004900448FEF774FDD5
:1026500007B000BD001001404438024000000240B5
:10266000FEE700000D4808B5016841F480010160F3
:102670000068002200F48000009003213B20FEF758
:10268000ADFE3B20FEF79EFE002203214520FEF713
:10269000A5FEBDE808404520FEF794BE3038024054
:1026A00010B504490448FEF797F90249491E08701D
:1026B00010BD00001D0000202C58000870B51F48F8
:1026C00086B00024016841F004010160016801F056
:1026D00004010591016841F020010160016801F0E9
:1026E00020010591016841F080010160016801F05D
:1026F00080010591016841F001010160016801F06C
:1027000001010591016841F00801016000680C4E6B
:1027100000F008004FF4C0650590002229463046BD
:10272000FEF7E2FD01200095CDE90104694630463F
:102730000394FEF701FD06B070BD00003038024082
:102740000014024006480549016000214160816093
:10275000C16001614161816170470000002C01404E
:10276000DC06002010B5134886B04FF080410160B0
:1027700053210024C0E901140121C0E90314FFF72B
:1027800088FD08B1FEF794F84FF480500090694638
:102790000848FFF7D6FD08B1FEF78AF8049404A9AB
:1027A00004480594FFF74DFD002801D0FEF780F89E
:1027B00006B010BD580800200C4810B50A49016049
:1027C0004FF4E1314160002181600C22C160C0E919
:1027D00004128161C161FFF7ECFE002803D0BDE85F
:1027E0001040FEF765B810BD001001403C0000200D
:1027F000FEE770470907090E002806DA00F00F000F
:1028000000F1E02080F8141D704700F1E02080F80E
:102810000014704770470A6842624A688262D1E9D0
:1028200002231A43D1E904310B43C16A1A4321F050
:10283000F7011143C162002070470069C0B27047C0
:10284000006800F00300704708B502490844009092
:10285000006808BD142C01400148FFF77BBA000056
:10286000DC06002070B50DF1100C11439CE87000DF
:102870002343194329434268314347F6FF639A4390
:102880000A434260002070BD0321016000207047B0
:10289000D0F8800070470A688260D1E901231A43AA
:1028A000D1E903310B43C1681A436FF30B011143A4
:1028B000C16000207047000070B5054600680E46F4
:1028C0000024416B11F0450FFBD0416B490703D544
:1028D00003210422826304E0416BC90703D0012174
:1028E0008163084670BDFFF7A8FFB0422BD129686D
:1028F00040F2FF5088630020FFF7A6FF28490842F6
:102900004BD0002801DA1C2070BD410001D5092000
:1029100070BD810001D50A2070BDC10001D50B201A
:1029200070BD010101D50C2070BD410101D50D2004
:1029300070BDC10101D50E2070BD010201D50F206F
:1029400070BD410201D5102070BD810201D511205A
:1029500070BDC10201D5122070BD010301D5132045
:1029600070BD410301D5142070BD810301D5152030
:1029700070BDC10301D5162070BD010401D517201B
:1029800070BD410401D5182070BD810401D5192006
:1029900070BD000701D51A2070BD204670BD000033
:1029A00008E0FFFD0146002009684A6B12F0450F60
:1029B000FBD04A6B520702D50320042207E04A6B82
:1029C000D20702D001208863704740F2FF528A6329
:1029D00070472DE9F0410446006815460E46002771
:1029E000416B11F0450FFBD0416B490703D5032123
:1029F0000422826304E0416BC90704D00121816392
:102A00000846BDE8F081FFF718FFB04212D12168F7
:102A100040F2FF5088630020FFF716FF10F4604F6C
:102A200003D0810404D51320EBE7000C288007E0D5
:102A3000410401D51020E4E7000401D50F20E0E7B0
:102A40003846DEE70146292009684FF480324B6B97
:102A500013F0450F07D14B6BA2F1010213F0450FA4
:102A600001D1002AF7D14B6BC3F3800302B113B13C
:102A70000320042204E04A6B520602D500204022C3
:102A80008A63704710B5846B01212165FEF7EAF86F
:102A9000A06DFEF7DAFF10BD10B5806B806DFEF7FC
:102AA000D5FF10BD10B5846B01212165FEF7DAF862
:102AB000E06DFEF7CCFF10BD10B5806BC06DFEF76A
:102AC000C7FF10BD2DE9F04F91B000250F460695C8
:102AD00008261021CDE90061402107950446CDE983
:102AE000021508010490A84669462068FFF7D3FE46
:102AF00010212046FFF7E0FE002844D1A08C694653
:102B000000040090372001902068FFF7C4FE3721B1
:102B10002046FFF7D1FE002835D1401ECDE908063A
:102B200030204FF00209CDE90A090120CDE90C80DF
:102B3000B246464608A92068FFF76DFE3320CDE96E
:102B4000006069462068FFF7A6FE33212046FFF7A4
:102B5000B3FE060017D10DF1180B40F22A68206869
:102B6000416B11EA080F08D1416B8902F7D5FFF7D5
:102B70008FFE4BF825006D1CF1E7416B090705D569
:102B8000C0F838A0042011B0BDE8F08F416B890770
:102B900003D5C0F838904846F5E7416B890603D560
:102BA000202181630620EEE7416B890504D54FF4AF
:102BB000007181630720E6E740F2FF5181630698C8
:102BC00000BA7860079800BA38603046DBE770B525
:102BD00086B004460120ADF8140000252068FFF7F8
:102BE0002FFE58B3206A04285DD000200221C026A1
:102BF0008DE8430003904802049069462068FFF77F
:102C00004AFE2046FFF7CEFE050018D1FFF71CFE56
:102C1000A0630420FFF718FEE0630820FFF714FE0E
:102C200020640C20FFF710FE6064206A48B1012880
:102C300007D0062805D0022803D011E0252006B0D1
:102C400070BD032001904020029069462068FFF784
:102C500022FE05AA03212046FFF7BBFE0500EED1A8
:102C6000206A04281FD0BDF81400606200040090A0
:102C70000920CDE9010669462068FFF70CFE2046D1
:102C8000FFF790FE0500DAD1FFF7DEFDA062042019
:102C9000FFF7DAFDE0620820FFF7D6FD20630C2085
:102CA000FFF7D2FD60632846C9E700002DE9F04F29
:102CB00087B0002504468DF80050574EA846A94617
:102CC00046F8A05F0068FFF7DFFD0120FEF78AF9F4
:102CD00001273760BE02CDE90456019502950395A0
:102CE00001A92068FFF7D7FD23680021B0015A6BC6
:102CF000C2F3C01204E05A6B401EC2F3C0120CD0E3
:102D0000002AF8D048B140F2FF5098638DF80010C7
:102D10009DF8000000287AD101E00321F6E74FF486
:102D2000D570019008204FF0400ACDE9020A01A9B0
:102D30002068FFF7B0FD2046FFF784FE8DF8000005
:102D40009DF8000010B94FF0804927623727CDE980
:102D5000015701A92068FFF79EFD37212046FFF7A4
:102D6000ABFD8DF800009DF80000D8B34FE003974D
:102D7000CDE9015BCDE9045601A92068FFF78BFD81
:102D800037212046FFF798FD8DF800009DF80000E0
:102D900048BB2249CDE9045649EA010001902920A7
:102DA000CDE9020701A92068FFF775FD2068002121
:102DB000426B12F0450FFBD0426B520702D5032144
:102DC000042201E040F2FF5282638DF800109DF86A
:102DD000000040B90020FFF737FDC10F08F10108DE
:102DE00005D008E000E012E0BB465746BFE74FF6CB
:102DF000FF718845BBD34FF6FF72904503D31B206C
:102E00008DF8000003E0400001D5022020629DF80B
:102E1000000007B0BDE8F08F008025420000108060
:102E200030B589B000250446019528460295FFF784
:102E30000BFD800102D50E2009B030BD01A920464E
:102E4000FFF740FE0028F7D10298C0031FD5A08CE1
:102E500003A900040390372004904020CDE9050524
:102E6000000107902068FFF716FD37212046FFF785
:102E700023FD0028E0D10620CDE9035003A92068F6
:102E8000FFF709FD06212046FFF716FDD4E72520B0
:102E9000D2E730B589B00025044601952846029551
:102EA000FFF7D2FC800102D50E2009B030BD01A988
:102EB0002046FFF707FE0028F7D10298400320D5EF
:102EC000A08C03A900040390372004904020CDE992
:102ED0000505000107902068FFF7DDFC372120463B
:102EE000FFF7EAFC0028E0D10220039006200490BE
:102EF00003A92068FFF7CFFC06212046FFF7DCFC82
:102F0000D3E72520D1E7000010B5064C0120207042
:102F1000FDF71AFC18B9207820F001002070207805
:102F200010BD00002C00002010B51446114A96B0C8
:102F300001201278D20702D0032016B010BDA1B133
:102F4000012907D04FF4007202290DD003290ED0B9
:102F50000420F2E76846FDF7EBFBDDE91201400AC9
:102F600040EAC150206000E022800020E5E72260B6
:102F7000E3E700002C0000201CB508464FF4007168
:102F8000CDE90013002452022346FDF7FBFB00B1FC
:102F9000012420461CBD000010B5064C0120207005
:102FA000FDF7CCFB18B9207820F0010020702078C4
:102FB00010BD00002C0000201CB508464FF4007125
:102FC000CDE90013002452022346FDF7F5FB00B1C2
:102FD000012420461CBD704710B5FEF791F9BDE8ED
:102FE0001040FFF728B9000030B5244893B0002501
:102FF000016841F080510160006800F0805011903C
:103000001F48016841F4804101600068022400F417
:1030100080401190012003901020049000940694A9
:103020000820CDE90750A820CDE9090407200B901E
:103030006846FEF733FB68B90CA90F2081E8310020
:103040004FF4A0500F90E002109005210CA8FEF75D
:10305000F7F908B1FDF72CFCFEF7B0FA4FF47A71DE
:10306000B0FBF1F0FFF7D3F80420FFF7C3F800221C
:103070001146501EFEF7B2F913B030BD4038024081
:10308000007000401048016841F4700101600F4871
:10309000016841F0010101600C4A00210832116011
:1030A00002680B4B1A400260031D0A4A1A6002684C
:1030B00022F48022026005480C3001600249580663
:1030C000803908607047000088ED00E00038024059
:1030D000FFFFF6FE103000240148FFF7ACB90000F6
:1030E00058080020F0B50268234B244D244E254F8C
:1030F000254C4FF0804C984209D0604507D0A8423B
:1031000005D0B04203D0B84201D0A04204D122F091
:10311000700E4A6842EA0E0298421BD0604519D0F0
:10312000A84217D0B04215D0B84213D0A04211D057
:10313000164DA8420ED0164DA8420BD0154DA842F0
:1031400008D0154DA84205D0144DA84202D0144D08
:10315000A84203D122F44075CA682A4302608A68F3
:10316000C2620A688262984201D0A04201D1096914
:10317000016301214161F0BD0000014000040040F5
:1031800000080040000C00400004014000400140E5
:10319000004401400048014000180040001C00406D
:1031A0000020004010B5846842EA032224F47F44E2
:1031B0000A432243826010BD826822F070020A43F3
:1031C00042F007018160704710B5036A046A24F079
:1031D00001040462846924F0F00444EA021423F038
:1031E0000A020A438461026210BD10B5036A23F02B
:1031F000100303628369046A23F4704343EA0232D2
:1032000024F0A00343EA01118261016210BD0000B5
:103210002DE9F04104460068016921F44052E1685B
:10322000114301612168C86849F20C629043236927
:10323000A268E5691A4363692B431A430243CA60D3
:103240002168486920F44072A06910434861E1692F
:103250006425B1F5004F9748974A21684FF032082E
:103260003FD0914201D081427CD1FEF7C5F900EBFD
:10327000C00101EB001061688900B0FBF1F6FEF7B8
:10328000BBF900EBC00101EB001061688900B0FBE5
:10329000F1F0B0FBF5F06FF01801484306EB800148
:1032A00008EB0110B0FBF5F000F0F006FEF7A4F912
:1032B00000EBC00101EB001061688900B0FBF1F088
:1032C000B0FBF5F006EB0016FEF796F900EBC00137
:1032D00001EB001061688900B0FBF1F7FEF78CF993
:1032E000D2E0914201D081423DD1FEF785F900EB59
:1032F000C00101EB001061684900B0FBF1F0B0FBC8
:10330000F5F00601FEF778F900EBC00101EB0010C3
:1033100061684900B0FBF1F7FEF76EF900EBC00100
:1033200001EB001061684900B0FBF1F0B0FBF5F073
:103330006FF01801484307EB800108EBC100B0FBB8
:10334000F5F000F0F80006EB4006FEF755F900EB4B
:10335000C00101EB001061684900B0FBF1F7FEF716
:103360004BF93CE055E0FEF72FF900EBC00101EB13
:10337000001061684900B0FBF1F0B0FBF5F0060108
:10338000FEF722F900EBC00101EB00106168490073
:10339000B0FBF1F7FEF718F900EBC00101EB0010EC
:1033A00061684900B0FBF1F0B0FBF5F06FF0180177
:1033B000484307EB800108EBC100B0FBF5F000F0DB
:1033C000F80006EB4006FEF7FFF800EBC00101EB4A
:1033D000001061684900B0FBF1F7FEF7F5F800EB6B
:1033E000C00101EB001061684900B0FBF1F0B0FBD7
:1033F000F5F06FF01801484307EB800108EBC100BE
:10340000B0FBF5F000F00700216830448860BDE8AB
:10341000F081FEF7D9F800EBC00101EB0010616804
:103420008900B0FBF1F6FEF7CFF800EBC00101EB2D
:10343000001061688900B0FBF1F0B0FBF5F06FF0AF
:103440001801484306EB800108EB0110B0FBF5F0D2
:1034500000F0F006FEF7B8F800EBC00101EB001039
:1034600061688900B0FBF1F0B0FBF5F006EB0016E7
:10347000FEF7AAF800EBC00101EB001061688900BB
:10348000B0FBF1F7FEF7A0F800EBC00101EB001074
:1034900061688900B0FBF1F0B0FBF5F06FF0180146
:1034A000484307EB800108EB0110B0FBF5F000F09A
:1034B0000F00A9E70014014000100140FEE70000E2
:1034C0000FB4054B10B503A9044A029800F0CAF8DE
:1034D00010BC5DF814FB0000854F00083800002088
:1034E00002E008C8121F08C1002AFAD170477047CD
:1034F000002001E001C1121F002AFBD1704700002B
:103500002DE9FF5FDDE90220010DDDF838B002434F
:1035100018D044F61050A1F2FF3141430D140F981A
:10352000012820D0A5EB0B00401C5FEA000A4FF0F9
:103530000004474EDFF81C91A046504616D5CAF14C
:10354000000728E00F98012443A2012808D0002199
:1035500000980F9BC0E90021C0E90243BDE8FF9F2E
:103560006FEA0B01F4E7CBF10000DEE7074612E05B
:10357000F80707D02246334640464946FCF7F1FF9C
:10358000804689462246334610461946FCF7E9FF35
:1035900004460E467F10002FEAD1DDE90201BAF1A0
:1035A000000F42464B4602DAFCF7DBFF01E0FCF776
:1035B0000BFE04460E460022284BFDF75DF803D8AB
:1035C0004FF0FF30014607E00022254B20463146F0
:1035D000FCF720FFFDF737F8102409E0002C0ADB88
:1035E0000A220023FCF788FE019B30321A55641E24
:1035F00050EA0102F2D1641C019AC4F1110314448F
:103600000F9A012A03D0012208430DD10AE0084392
:1036100004D000204FF0110B0F9080E7A3EB0B05B7
:103620006D1E0DE05B4504DD4FF0000205F1010564
:1036300004E003DA4FF00002A5F10105002AECD006
:1036400000980F99C0E90231C0E9004586E7000003
:10365000000024400000F03F300000000000F04374
:103660000000E03F2DE9FF4F95B09B468946064696
:1036700000250FE2252877D100242746F84A0121AA
:10368000059400E0044316F8013F203B01FA03F0E3
:103690001042F7D130782A2811D06FF02F033078FC
:1036A000A0F13002092A16D8059A44F0020402EB70
:1036B000820203EB42021044761C0590EFE759F8B2
:1036C000042B0592002A03DA504244F4005405907A
:1036D00044F00204761C30782E2816D116F8010F1B
:1036E00044F004042A280DD06FF02F023078A0F1A6
:1036F0003003092B09D807EB870302EB4303C718F4
:10370000761CF3E759F8047B761C30786C280FD0D0
:1037100006DC4C2817D068280DD06A2814D104E0A4
:10372000742810D07A280FD10DE044F400140AE078
:1037300044F4801401E044F440147278824202D1CF
:1037400004F58014761C761C307866280BD013DCC8
:10375000582877D009DC002875D04528F6D04628AF
:10376000F4D047281AD19DE118E0632835D06428A9
:1037700079D0652812D195E1702873D008DC6728CC
:10378000F1D069286FD06E280DD06F2806D1B5E032
:1037900073282CD0752875D0782874D05A4617997C
:1037A00090476D1C75E1C4F30250022809D003282C
:1037B0000DD0D9F8001004280DD00D6009F10409CE
:1037C00067E1D9F80010EA17C1E90052F6E7D9F825
:1037D00000100D80F2E70D70F0E719F8041B8DF86A
:1037E000001000208DF80100EA46012003E059F89E
:1037F00004AB4FF0FF3061074FF0000102D40DE041
:1038000008F101018846B9420FDA8045F8DB1AF861
:1038100008100029F4D108E008F10101884681422E
:10382000FADB1AF808100029F6D105985B46A0EBE0
:10383000080721463846179A00F094FA284400EB0E
:10384000080507E04DE029E10DE01AF8010B5A46A2
:1038500017999047B8F10108F7D25B4621463846E0
:10386000179A13E142E00A220092C4F302524FF089
:10387000000A022A08D059F804CB032A4FEAEC7157
:103880000AD00DE029E02AE009F1070121F0070242
:10389000F2E802C1914609E00FFA8CFC4FEAEC71A4
:1038A000042A03D14FFA8CFC4FEAEC71002907DAA5
:1038B0000A460021DCF1000C61EB02012D2202E03E
:1038C000220504D52B228DF80420012203E0E20713
:1038D00001D02022F7E7904659E00A2102E01022A9
:1038E0000DE010214FF0000A00910BE010224FF084
:1038F000000A44F004040827009203E008224FF075
:10390000000A0092C4F30252022A05D059F804CBEF
:103910000021032A08D009E009F1070121F007027C
:10392000F2E802C1914605E01FFA8CFC042A01D19D
:103930000CF0FF0C4FF00008220728D5702806D0A5
:10394000009B83F0100353EA0A0305D00EE04022E7
:103950008DF80420012208E05CEA010206D0302242
:103960008DF804208DF8050002229046009B83F01C
:10397000080353EA0A030AD15CEA010201D1620793
:1039800005D530228DF804204FF001087F1E5828FD
:1039900004D034A003900EA802900DE036A0F9E701
:1039A00053466046009AFCF7A7FC84460398825C65
:1039B0000298401E029002705CEA0100F0D1029869
:1039C00006A9081A00F1200A600702D524F4803401
:1039D00000E00127574502DDA7EB0A0000E00020C8
:1039E00000EB0A01009005984144401A0590E0035D
:1039F00006D45B462146179A059800F0B3F90544B2
:103A0000002706E001A85A46C05D179990476D1C33
:103A10007F1C4745F6DBE0030CD55B462146179A31
:103A2000059800F09FF9054404E030205A461799A4
:103A300090476D1C0099481E00900029F5DC08E0B5
:103A4000029802995A460078491C029117999047AA
:103A50006D1CBAF10001AAF1010AF1DC65E1000078
:103A60000928010030313233343536373839616254
:103A70006364656600000000303132333435363718
:103A800038394142434445460000000000F058F9EF
:103A90000544761C307800287FF4ECAD19B0284638
:103AA000BDE8F08F620700D4062709F1070222F073
:103AB000070CFCE80223E14603F000485FEA080C2B
:103AC00002D00FF2702C0DE05FEA045C02D50FF219
:103AD000682C07E05FEAC47C02D00FF2602C01E0A2
:103AE000AFF2700C4FF0FF3823F00043CDF850C018
:103AF00065280CD006DC452809D046281DD047286B
:103B00003DD13DE0662818D067287ED138E00021FD
:103B1000112F01DB112000E0781CCDE9000106A97E
:103B20000EA8FFF7EDFCDDE90F010E9A03910021CD
:103B3000009207F1010A04914DE04FF00040009718
:103B4000CDE9011006A90EA8FFF7DAFCDDE90F02A6
:103B500003920E9B11990022DDF80CA000930492B1
:103B600011B9791C00EB010AB7EB0A0004D4C0F1CB
:103B7000FF3007F1010A0490AAEB0700019044E02E
:103B8000012F00DA01270021112F01DD112000E0B3
:103B90003846CDE9000106A90EA8FFF7B1FCDDE922
:103BA0000F010E9A0391002104910092BA46210759
:103BB0000CD40399514500DA8A46BAF1010F05DDAC
:103BC000009AAAF10101515C302908D0B84202DA0A
:103BD00010F1040F06DA0121CDE9011015E0AAF178
:103BE0000101E9E7002805DC049901440491AAEBEE
:103BF000000102E0411C514500DD8A460499401A4B
:103C0000401C01904FF000400290200704D401981E
:103C1000504501DBCDF8048000208DF84F0002985C
:103C20000DF14F07B0F1004F25D02B200E900298D8
:103C30004FF0020800280CDA404202902D200E902E
:103C400007E00A210298FCF741FB3031029007F8A7
:103C5000011DB8F10001A8F10108F2DC029800286A
:103C6000EFD1791E0E980870307800F0200040F0F7
:103C7000450007F8020D12A8C01B00F107081498B0
:103C8000007800B1012000EB0A01019801EBE0711E
:103C900005984144401A401E0590E00306D45B4657
:103CA0002146179A059800F05DF8054414980078AD
:103CB00018B15A46179990476D1CE00324D55B460E
:103CC0002146179A059800F04DF805441CE0049829
:103CD000002807DBDDE90301884203DD0098405C32
:103CE000179901E0179930205A469047049805F13A
:103CF0000105401C04900198401E019004D12E2023
:103D00005A46179990476D1CBAF10001AAF1010AB1
:103D1000DDDC05E017F8010B5A46179990476D1C3A
:103D2000B8F10001A8F10108F4DC5B462146179ABE
:103D30000598ABE62D0000002B00000020000000DD
:103D40002DE9F041044600251E461746880404D498
:103D500005E039462020B0476D1C641EF9D5284681
:103D6000BDE8F0812DE9F041044600251E4690464D
:103D7000C80301D5302700E02027880404D505E0DA
:103D800041463846B0476D1C641EF9D52846BDE84B
:103D9000F081000010B50446002084F80402401EA3
:103DA000C4F83002204601F0B1FB08B1032010BD79
:103DB000B4F8FE01A0F52A41553901D0022010BD0A
:103DC00094F83600B4F8371040EA01210848B0EB07
:103DD000012F08D094F85210B4F8532041EA022180
:103DE000B0EB012F01D1002010BD012010BD00005B
:103DF0000046415400E0401C02780AB18A42FAD1E0
:103E0000D0B27047F0B50022184B144602EB4206C0
:103E100053F8265085B1D0F80072BD420DD103EBA6
:103E20008605D0F808626F68B74206D12D89B0F8D0
:103E30000662B54204D000E00124521C022AE5D3F8
:103E4000022A01D079B904E05CB9022909D0122014
:103E5000F0BD02EB420003EB80004089B0F5807FAB
:103E600001D00020F0BD1020F0BD0000B4080020FB
:103E700030B50021064A0C4601EB410352F82350AD
:103E8000854201D142F82340491C0229F4D330BDB8
:103E9000B4080020D0F82422D0F80002490A90F893
:103EA0000202B1FBF0F0121D02CA19B1884203D31D
:103EB000401AF8E700207047116808447047D0F8AE
:103EC0001822891E921E8A4201D800207047D0F81D
:103ED0002C2290F8020201FB002070472DE9F041EE
:103EE0000F00054606D001F09DF802280BD20120F4
:103EF000BDE8F081D5F80C621EB1D5F81802B042C9
:103F000008D8012606E0411CF2D0D5F818128142EB
:103F1000EED83E463446D5F81802641CA04202D8BA
:103F20000224022E0AD32146284601F07BF838B13C
:103F3000411CDDD00128DBD0B442ECD10020D7E712
:103F40006FF070422146284601F0FBFA30B957B1B4
:103F500022463946284601F0F4FA20B1012812D051
:103F600001242046C4E7C5F80C42D5F81002411CD4
:103F7000F7D0401EC5F8100295F8050240F0010088
:103F800085F80502EDE74FF0FF34EAE72DE9F84F39
:103F9000894680460F6800E07F1C38782F28FBD0C8
:103FA0005C28F9D00024D8F820622546785D6D1C85
:103FB000202827D32F2825D05C2823D0FF2C5FD2A0
:103FC000A0F181017D290BD8795D6D1C01EB0020EA
:103FD000A1F1400280B23F2A02D380397F294FD21B
:103FE000012100F01DFE5FEA000A49D0BAF1800FFE
:103FF00004D2014680A0FFF7FDFEE8BB26F814A01E
:10400000641CD3E77A19C9F80020202801D20425BE
:1040100000E000250021012C04D0022C2ED1708854
:104020002E2816D130882E2813D126F814100020FF
:10403000A04201D22E2200E02022D8F818120A5401
:10404000401C0B28F4D3D8F8181245F020020A546B
:10405000CFE006EB440030F8020C20280DD02E28CB
:104060000BD04CB126F814100B222021D8F81802DE
:1040700001F045FA002707E002E0641E002CE8D1B9
:104080000620BDE8F88F7F1C36F817002028FAD0EC
:104090002E28F8D01FB145F0030500E0641E2CB1B6
:1040A00006EB440030F8020C2E28F7D1002082469F
:1040B0004FF0080BCDF8000036F8170007F10107A4
:1040C0005FEA000924D0B9F1200F04D0B9F12E0F16
:1040D00004D1A74202D045F00305EDE7009858450A
:1040E00001D2A7421AD1BBF10B0F0FD0A74201D0CA
:1040F00045F003050CD84FF0080000904FEA8A60A5
:1041000027464FF00B0B4FEA106AD5E745F0030541
:10411000D8F818020178E52949D04AE04846B9F1B3
:10412000800F07D300F0A2FD002100F079FD814649
:1041300045F00205B9F1FF0F13D90099ABF1010069
:10414000814204D345F00305CDF800B0B4E7D8F8B8
:10415000182200984FEA192111540098401C009031
:104160001CE0B9F1000F04D0014626A0FFF742FE83
:1041700020B14FF05F0945F003050FE0A9F14100C0
:10418000192802D84AF0020A08E0A9F161001928AA
:1041900004D841304AF0010A1FFA80F9D8F81822F1
:1041A000009902F801900098401C009084E70521D6
:1041B0000170BBF1080F03D14FEA8A604FEA106A21
:1041C000CAF38100032803D06FEA0A01890701D1ED
:1041D00045F00205A90709D40AF00301012901D11C
:1041E00045F01005012801D145F00805D8F818025E
:1041F000C572002045E70000222A3A3C3E3F7C7F02
:10420000000000002B2C3B3D5B5D0000401E02289F
:1042100015D20C4B00EB400203EB82014889B0F54C
:10422000807F05D008B1401E80B2488110B104E003
:104230000020FAE7002043F8220000207047022007
:1042400070470000B40800202DE9FC5F05460021FE
:1042500000F018FA00286ED1FF204FF6FF7A009088
:104260008146A5F824A200BFD5F81012D5F80002A7
:1042700001F04CF906000ED1D5F81442207848B16F
:10428000E17AE52801F03F0170D00A0704D50F2933
:104290006CD107E0042674E00F2903D0B9F1000FB8
:1042A0004DD052E0D5F8201291B3420608D5627B7A
:1042B000009220F04000B5F806228146A5F824229D
:1042C000484534D1627B0098824230D101912078F8
:1042D000A04620F04000401E00EB80010027DFF8E0
:1042E000A8B001EBC00601241BF8071001EB080081
:1042F000008874B100F0BAFC0446FF2E17D2019872
:1043000030F81600761C00F0B1FCA0420FD102E09C
:1043100030E050450BD17F1C0D2FE5D398F80000FD
:10432000400609D544B1019830F8160020B1FF20AD
:1043300000F0FF091EE025E0A9F10100F8E72046A2
:1043400001F0BAF9009988421BD0D5F81802C17A59
:10435000C9070BD10A2101E0491E06D314F8012B2D
:1043600010F8013BD21AF7D000E052B14FF0FF092C
:10437000A5F824A20021284600F008F806003FF422
:1043800073AF3046BDE8FC9F405800082DE9F0416E
:10439000B0F806620446761C30040F46000C37D095
:1043A000D4F8100298B3310773D1401CC4F810023E
:1043B000D4F80C12D4F8000231B190F80222521E47
:1043C00012EA161F05D064E0B0F80802B0421FD907
:1043D0005FE000F027FE054601281ED9681C3AD090
:1043E000D4F80002D0F81812A94249D87FB1D4F805
:1043F0000C12FFF773FD05000DD0012D0DD0681CC8
:1044000029D0D4F8000201F0BFF920BB07E0FFE794
:104410000420BDE8F0810720FBE70220F9E74FF414
:1044200000720021D4F8000201F069F82946D4F89E
:104430000002FFF744FDD4F8001200274FF00108F6
:10444000C1F8300211E000BF80F80482D4F8000205
:1044500001F09AF908B10120DBE7D4F80002D0F8A6
:104460003012491C7F1CC0F83012D4F8000290F8BA
:104470000212B942E8D8D0F83012C91BC0F8301285
:10448000C4F80C522946D4F80002FFF718FDC4F80E
:104490001002A4F80662D4F8000206F00F0100EB47
:1044A0004110C4F814020020B3E700002DE9FF5FBB
:1044B000D0F818720446D0F820620C2239466846BB
:1044C00001F014F89DF80B00810603D5062004B016
:1044D000BDE8F09FC0071AD00020F8720125C4F88B
:1044E00020022B4632466946384600F055FD2046EC
:1044F000FFF7AAFE10B96D1C642DF2D3642D0CD009
:104500000428E4D19DF80B00F872C4F820629DF8ED
:104510000B0080070DD5002002E00720D7E7401CE4
:1045200036F810100029FAD10D211930B0FBF1F640
:1045300000E001260021204600F0A4F8A0B90027E1
:10454000D4F81012D4F8000200F0E0FF60B9D4F8FB
:1045500014020078E5280AD048B10027012120463E
:10456000FFF714FF0028EBD0042812D012E07F1CC4
:104570003046B742F2D1461E5FEA060A5FD0B4F871
:1045800006122046A1EB0A0100F07CF8050003D0DA
:1045900074E00720054671E0D4F8180201F08CF8A9
:1045A000CDF80C00D4F81012D4F8000200F0AEFFE1
:1045B000050063D1D4F81412D4F8209203984873FC
:1045C0000F20C8720020087388760AF0FF0BC876A7
:1045D000ABF1010000EB800202EBC00500234FF6B7
:1045E000FF7E274E4A1C01E0604503D039F81500D4
:1045F000F4466D1CF75CC85516F80380070A08F8E6
:10460000027000B960465B1C0D2BEDD3704502D0E3
:1046100039F8150008B94BF0400B81F800B0D4F818
:104620000012012081F8040200212046FFF7AEFEAF
:10463000050023D1AAF101005FEA000AB2D1D4F843
:104640001012D4F8000200F061FF050016D1D4F872
:1046500014022022002104F5007400F050FFD4E978
:1046600005010B2200F042FFA0696169C07A00F0E9
:10467000180008732168012081F80402284626E703
:104680004058000870B5A0F80612D0F808320D4660
:104690000446012B40D0D4F80002D0F818129942F9
:1046A0003AD933B990F80012032906D1D0F828324C
:1046B0001BB190F80202060114E0B0F80812A942FA
:1046C0002AD9D0F8280214E000F0ACFC0346401CC4
:1046D00020D0022B20D3D4F80002D0F81802984240
:1046E0001AD9AD1BD4F80002B5421946ECD2FFF737
:1046F000E6FBC4F80C3278B100EB1510C4F81002D8
:10470000D4F8000205F00F0100EB4110C4F81402C8
:10471000002070BD012070BD022070BD084910B599
:104720000B5C002253B901220A540A1801EB8000E5
:10473000127A40680168104688470246104610BD4C
:10474000CC08002030B4054C231804EB80001B7A01
:10475000406804691846A44630BC6047CC08002075
:1047600030B4054D2C1805EB8000247A406885682C
:104770002046AC4630BC6047CC080020044A1118E3
:1047800002EB8000097A4068426808461047000042
:10479000CC08002030B4054D2C1805EB8000247A9D
:1047A0004068C5682046AC4630BC6047CC08002055
:1047B00010B5044600F0DAF900280DD1204601F0CA
:1047C00013F8002808D1D4F82802FFF71FFD0028AD
:1047D00002D10021C4F8001210BD00002DE9F741FC
:1047E00081B0904602980090684600F07CFC04007E
:1047F00003D50B2004B0BDE8F0810E4E002756F81B
:10480000245025B12846FFF733FB85F80072019844
:10481000002801D080F8007246F8240002D0B8F1D8
:10482000010F01D00020E5E7002202A901A800F055
:104830002FFADFE7340000202DE9F747ADF2344DC1
:1048400006000FD04FF0000802F01F0727F001020A
:104850000DF5876180A8C6F8008200F019FA0400FF
:1048600005D0B7E009200DF5886DBDE8F0870DF59E
:10487000856086908AA888906846DDF8381400F034
:1048800037FB859D04000BD11DB1780803D00121B1
:1048900002E0062404E000216846FFF7B3FA04466C
:1048A00017F01C0F5ED04FF0010AD4B1042C13D1C5
:1048B00000204A4902E0401C022805D200EB4002D9
:1048C00051F82220002AF6D1022804D06846FFF7CA
:1048D000EDFD044600E01224859D47F0080754B121
:1048E00078E0E87A10F0110F01D0072472E0780721
:1048F00001D508246EE0380742D585F80E8085F88A
:104900000F80312129744A21697485F80B8085F85C
:104910001C8085F81D8085F81E8085F81F8029463B
:10492000809800F04FFC81460021284600F0BCFE34
:104930008099B9F1000F81F804A21FD080984946F0
:10494000D0F830A200F079FE040043D18099A9F19B
:104950000100C1F80C025146809800F0D7FD040018
:104960000AD037E0B4BBE87AC10601D5042431E0AF
:10497000B90701D5C007B8D1380701D547F02007DE
:104980008098D0F83002C6E98705780801D0012167
:1049900000E00021684600F0C5FBC6F82802D8B147
:1049A00086F8067286F807824746294606F500769D
:1049B000809800F007FC3061287FD5F81D1040EA90
:1049C0000120C6E90270B761776280983060B0F864
:1049D0000602B080204646E70224FBE7B408002028
:1049E0002DE9F84F8846002199461546044619607E
:1049F00000F0FAFE002812D194F8070200280ED128
:104A000094F80602C00709D0D4E98201081A0127E8
:104A10004FF0020A854200D90546A2E00720BDE812
:104A2000F88F00BFD4F80812C8057CD1D4F8000272
:104A300090F80222521E02EA512212F0FF0614D10F
:104A400031B1D4F8242232B12046FFF723FA06E030
:104A5000D4F8100203E0D4F8141200F0E3FA0228AC
:104A600023D3411C5BD0C4F81402D4F81412D4F838
:104A70000002FFF724FAC0B130440090680A5FEAF0
:104A8000000B2AD0D4F8001206EB0B0291F80202B8
:104A9000824201D9A0EB060B91F801025B46414628
:104AA000009AFFF75DFED0BB03E084F807A2022066
:104AB000B5E794F8060240060CD5D4F81812009811
:104AC000081A584506D208EB40204FF400722146E0
:104AD00000F00CFD4FEA4B2637E0D4F8182200987E
:104AE000824221D094F8060240060ED5D4F8000286
:104AF0000123214690F80102FFF74CFE78B994F8A3
:104B0000060220F0400084F80602D4F800020123D7
:104B1000214690F80102009AFFF722FE20B184F8A6
:104B2000077201207BE702E00098C4F81802B4F88D
:104B30000802C0F30800C0F50076AE4200D92E4648
:104B400001193246404600F0D1FCD4F80802B044C6
:104B50003044C4F80802D9F800008119AD1BC9F827
:104B60000010002D7FF45EAF002058E770B50446BA
:104B700000F03AFE002811D194F806128A060DD5ED
:104B8000480612D5D4F800020123214690F801020C
:104B9000D4F81822FFF7FEFD08B1012070BD94F88B
:104BA000060220F0400084F80602D4F81C12D4F863
:104BB000000200F0ABFC0028F0D1D4F82052E87AD3
:104BC00040F02000E87294F80C022877B4F80C0248
:104BD000000A6877D4F80C02000CA877D4F80C020D
:104BE000000EE877D4F81012284604F5007400F09F
:104BF0005BFD0020A875E875312129764A21697688
:104C0000A874E874A07920F02000A0712168012028
:104C100081F804022068BDE8704000F05ABD000031
:104C200070B580281BD345F2205309B10D4D00E02B
:104C30000D4D002110245A1A02EBD27201EB6202D0
:104C400035F82260864206D001D2114600E01346B4
:104C5000641EF0D104E01CB105EB8200408870BDF9
:104C6000002070BDFEAC01087A5800080021064BF8
:104C700000E0491C33F81120002A04D08242F8D108
:104C8000024830F8110070478201030862030308EC
:104C90002DE9FF474FF000080746C0F80080164690
:104CA000084600F020FA050003D50B2004B0BDE84B
:104CB000F0878C4850F82540ACB13C6094F8000275
:104CC00028B194F80102FFF759FDC1070DD084F80F
:104CD0000082E8B2474684F80102FFF71FFDC107D2
:104CE00008D00320E2E70C20E0E70EB1400704D42F
:104CF0000020DBE71EB1400701D50A20D6E70025DA
:104D000029462046FFF746F8012824D100206A46AC
:104D100004EB001191F8C23101F5DF712BB10B7A70
:104D2000D1F8091043EA012100E0002142F82010E7
:104D3000401C0428ECD300264FEA020858F82650FD
:104D40002DB129462046FFF725F808B909E00220D1
:104D5000761C042EF2D3032801D0E8BB01E0012029
:104D6000A4E7B4F80B00B0F5007F60D1E08A28B961
:104D700094F82400D4F8251040EA0120C4F81C025D
:104D8000217C814684F80312012901D002294ED1E9
:104D90004143607B84F80202F0B1421E104246D1CA
:104DA000B4F81120A4F80822130740D1B4F8136016
:104DB0002EB994F82030D4F8216043EA0626B4F8DE
:104DC0000EC0BCF1000F32D00CEB010303EB121349
:104DD0009E422CD3F61A00E029E0B6FBF0F030B387
:104DE000012640F6F678404500D302264FF6F678C5
:104DF000404500D30326801C2B44C4F82C32AC441D
:104E0000C4F81802C4E9885C032E12D07AB1614458
:104E1000C4F82812022E18D000F0010100EB400067
:104E200001EB500000F2FF10B9EB502F0FD20D2014
:104E30003CE7002AFBD194F82C10D4F82D208000F8
:104E400041EA0221C4F82812ECE74000EAE74FF0FB
:104E5000FF30C4F81002C4F80C02802084F8050268
:104E6000032E30D1208E01282DD12046691C00F060
:104E70004DFB40BB84F80572B4F8FE01A0F52A4151
:104E8000553920D12078D4F8011040EA0120164984
:104E9000884218D194F8E401D4F8E51140EA0120E1
:104EA000124988420FD194F8E801D4F8E91140EA98
:104EB0000120C4F8100294F8EC01D4F8ED1140EA96
:104EC0000120C4F80C02074984F80062091F088811
:104ED000401C0880A4F806022046C4F81472FEF7AD
:104EE000C7FF05E7340000205252614172724161F0
:104EF00073B504460199002508782F2812D05C2844
:104F000010D0D4F80002D0F81402C4F808020198B6
:104F1000007820280BD200212046FFF7B3FBC4F80D
:104F200014527CBD491C0191C4F80852EFE701A955
:104F30002046FFF72BF80028F3D12046FFF784F92D
:104F4000D4F81812C97A78B10428EAD18A0607D5AC
:104F5000C4F80852C4F814524807E8D500207CBDB4
:104F60004907FCD405207CBD4907FCD4D4F81412B1
:104F7000C87AC006F6D5D4F8000200F023F9C4F8C8
:104F80000802D4E703490A685206FCD5C2B24A6057
:104F900070470000001001407CB516461C460546CF
:104FA0000B2200F0A3FA052C11D91D4A0CE00021B8
:104FB000B61C2346044663F35F044008E30300D5B0
:104FC0005440491C1029F4D330880028EFD1072120
:104FD0004FEA0D0304F00F003030392800D9C01D0E
:104FE0005854491E2409F5D17E20002258544C1EE5
:104FF00006E081387D2802D8A24206D0521C521CFD
:105000008A4202D2A85C2028F3D1082902D2585C37
:10501000491C00E02020A854521C082AF5D37CBD6E
:10502000211001002DE9F0410D46044602290DD35F
:10503000D4F81802A84209D994F800024FF0FF36BC
:10504000012807D002282AD0032836D0012630466E
:10505000BDE8F081D4F8240205EB550700EB572199
:10506000204600F053FA0028F1D1C7F308007F1C56
:1050700014F80080D4F8240200EB5721204600F0F9
:1050800045FA0028E3D1C7F30800215C48EA012073
:10509000E90701D00609DAE7C0F30B06D7E7D4F831
:1050A000240200EB1521204600F030FA0028CED172
:1050B000E8B204EB40000688C9E7D4F8240200EB0C
:1050C000D511204600F022FA0028C0D140F2FF108E
:1050D00000EA850020440178D0F8010041EA002070
:1050E00020F07046B3E710B504464FF0FF30226859
:1050F000002A13D0114600E0491C0B78202B0ED358
:105100003A2BF9D112F8013B303B0A2B06D28A42E6
:1051100004D1002B02D1491C1846216010BD00208B
:1051200010BD0000F0B50346254AD3F80042002028
:1051300000EB400552F82560A6420BD102EB850535
:10514000D3F808626F68B74204D12D89B3F80662BC
:10515000B54202D0401C0228EAD302281AD100200E
:1051600002E0401C022805D200EB400552F8255011
:10517000002DF6D1022815D000EB400542F825405D
:1051800002EB8504D3F808626660B3F80632238127
:1051900000236381002900EB400102EB8101498972
:1051A00002D019B10020F0BD491C01E04FF480711C
:1051B00000EB400302EB8302401C5181F0BD000074
:1051C000B40800200246488B92F80022032A02D13C
:1051D000898A40EA014070472DED028B86B0FCF7CA
:1051E00097F8FDF701FFFDF769FAFDF73BFAFDF7C8
:1051F000A9FAFDF755FAFDF7DFFAFDF7B3FA6E48A5
:10520000FDF77EF800256DA0FEF75AF900226F49E0
:105210006F48FFF7E3FA6F4C10B101202070BDE03A
:105220006DA0FEF74DF973A0FEF74AF9012275A1B2
:105230007748FFF701FB022708B12770AEE075A0A1
:10524000FEF73EF909214FF0030BC4E9011BCDE93C
:10525000021B002604970096FBF75AFF5D4968463B
:105260000C312661FBF7CAFE08B1267096E070A0EB
:10527000FEF726F994ED040AA146B8EE400A10EEB6
:10528000100AFBF710F89FED718B53EC182BFAF70F
:105290009BFF41EC100B6FA053EC102BFEF710F9A5
:1052A0005B48D0F80C1270A04F0AC1F30804FEF757
:1052B00007F9DFF8D0A1C9F8106022E0454B4FF4A0
:1052C0000072183370495248FFF78AFB00264FEAF4
:1052D00045286D4810F8161000EB4600407801EBA9
:1052E000002208EB4601D31751440120FBF7D2FE00
:1052F00018B100BF89F800B050E0761CFF2EE8DD41
:105300006D1CBD42DAD30CB3324B224618335E49D2
:105310003F48FFF765FB00257E02DFF86C815746AA
:1053200011E000BF08EB450018F81510407801EBBC
:10533000002206EB4500C119D3170120FBF7AAFE96
:105340000028D7D16D1CB5EB540FEBDB3048FFF7CD
:105350002FFA4EA0FEF7B4F899ED040A4D46B8EEC8
:10536000400A10EE100AFAF79EFF53EC182BFAF7DA
:105370002BFF41EC100B37A053EC102BFEF7A0F8DD
:105380000D48FCF7C9FFDAF80000544647490840C9
:10539000B0F1005F04D046A0FEF792F8FBF788FA60
:1053A000606868614AA0FEF78BF82068FAF7F6FE9D
:1053B00068698047FEE70000580800204C696E6B62
:1053C000204469736B2E2E2E0D0A00001D00002054
:1053D0007C000020000000204C696E6B2044697343
:1053E0006B207375636365737366756C2E2E2E0D5B
:1053F0000A0000004F70656E2046696C652E2E2EE7
:105400000D0A0000303A2F6170702E62696E000044
:10541000B00200204F70656E2046696C6520737580
:10542000636365737366756C2E2E2E0D0A00000083
:10543000464C415348204572617365207375636320
:1054400065737366756C2E2E2E0D0A000000000029
:1054500080842E4155736167652074696D653A20BB
:10546000252E3666730D0A006170702E62696E20FB
:1054700073697A65203D20256C64206279746573B8
:105480000D0A000000000A08DC04002052656C6F61
:1054900061642062696E2066696C65207375636360
:1054A00065737366756C2E2E2E0D0A000000FE2F9C
:1054B0004170706C69636174696F6E2061646472BD
:1054C000657373206572726F722E2E2E0D0A0000A6
:1054D0004A756D7020746F204170706C69636174DF
:1054E000696F6E2E2E2E0D0A0000000004E000BF32
:1054F00011F8013B00F8013B521EF9D27047C9B2C6
:1055000001E000F8011B521EFBD2704770B5054642
:10551000D0F830020C460026A04210D0284600F0F9
:1055200033F906000BD195F80102012322462946E2
:10553000FFF716F908B1741E0126C5F8304230464F
:1055400070BD2DE9F04717460D460446022903D3E6
:10555000D4F81802A84202D80220BDE8F08794F8D7
:10556000001207F0FF084FF00109012920D002299D
:1055700050D00329F0D1D4F8240200EBD5112046F5
:10558000FFF7C4FF0028E8D140F2FF1101EA8501CE
:105590000A194FF07043D2F8011003EA0121394390
:1055A00011700B0A53700B0C9370090ED17041E00F
:1055B000D4F8240205EB550600EB56212046FFF7F0
:1055C000A5FF0028C9D1C6F30800761C2044E907CE
:1055D00003D0017868F31F1100E03946017084F8A8
:1055E0000492D4F8240200EB56212046FFF78EFFE8
:1055F0000028B2D1C6F308012144EA0702D0C7F35C
:10560000071205E00A78C7F3032302F0F0021A43F9
:105610000A700FE0D4F8240200EB15212046FFF7B2
:1056200075FF002899D1E9B204EB41013A0A81F8EB
:1056300000804A7084F804928FE72DE9F0410F460C
:105640000646022917D3D6F81802B84213D9002506
:1056500023E039463046FFF7E5FC040021D0012C59
:1056600009D0601C09D0002239463046FFF769FF97
:10567000050016D103E0022513E0012511E0D6F85C
:105680001002411C08D0401CC6F8100296F8050212
:1056900040F0010086F805022746D6F81802B84205
:1056A000D7D82846BDE8F08181760A0AC2760A0C6E
:1056B0000275090E41757047014600200B22430810
:1056C00003EBC01011F8013B521E1844C0B2F6D1D2
:1056D000704770B5044600F057F8050052D194F8B1
:1056E0000002032846D194F80502012842D1420263
:1056F00000212046FFF703FF552084F8FE01AA2071
:1057000084F8FF015220207060706120A070412158
:10571000E170722284F8E42184F8E52184F8E6112E
:1057200084F8E701D4F8100284F8E801010A84F84B
:10573000E911010C84F8EA11000E84F8EB01D4F8A9
:105740000C0284F8EC01010A84F8ED11010C84F8D4
:10575000EE11000E84F8EF01D4F820220123521C30
:10576000C4F8302294F801022146FFF713F8002014
:1057700084F80502002294F801021146FEF7E2FFC8
:1057800000B10125284670BD2DE9F041044690F88E
:105790000402002728B3D4F8305294F80102012300
:1057A0002A462146FEF7F6FF08B1012719E000203E
:1057B00084F80402D4F82402D4F81C12281A88426F
:1057C0000FD294F803620AE0D4F81C0201230544C6
:1057D00094F801022A462146FEF7DCFF761E022ECF
:1057E000F2D23846BDE8F08110B588B1D0F8001289
:1057F00071B191F800225AB1B1F80622B0F8040252
:10580000824205D191F80102FEF7B8FFC00700D02F
:10581000092010BD0006101600061016000000003A
:10582000010203040102030406070809092F000806
:10583000992F0008792F0008B92F0008292F000898
:1058400001030507090E10121416181C1E0000048F
:105850000002000180004000200010000800040049
:1058600002000000008000400020001000080040FE
:1058700000200010000800040002A400E8A1A70016
:10588000ECA1A800A7A1B000E3A1B100C0A1B7009E
:10589000A4A1D700C1A1E000A4A8E100A2A8E8004B
:1058A000A8A8E900A6A8EA00BAA8EC00ACA8ED00F8
:1058B000AAA8F200B0A8F300AEA8F700C2A1F900B0
:1058C000B4A8FA00B2A8FC00B9A80101A1A813016C
:1058D000A5A81B01A7A82B01A9A84401BDA84801A0
:1058E000BEA84D01ADA86B01B1A8CE01A3A8D001FF
:1058F000ABA8D201AFA8D401B3A8D601B5A8D801EE
:10590000B6A8DA01B7A8DC01B8A85102BBA86102A9
:10591000C0A8C702A6A1C902A5A1CA0240A8CB027D
:1059200041A8D90242A89103A1A69203A2A693037B
:10593000A3A69403A4A69503A5A69603A6A69703DB
:10594000A7A69803A8A69903A9A69A03AAA69B03AB
:10595000ABA69C03ACA69D03ADA69E03AEA69F037B
:10596000AFA6A003B0A6A103B1A6A303B2A6A40349
:10597000B3A6A503B4A6A603B5A6A703B6A6A80317
:10598000B7A6A903B8A6B103C1A6B203C2A6B303C2
:10599000C3A6B403C4A6B503C5A6B603C6A6B7037B
:1059A000C7A6B803C8A6B903C9A6BA03CAA6BB034B
:1059B000CBA6BC03CCA6BD03CDA6BE03CEA6BF031B
:1059C000CFA6C003D0A6C103D1A6C303D2A6C403E9
:1059D000D3A6C503D4A6C603D5A6C703D6A6C803B7
:1059E000D7A6C903D8A60104A7A71004A1A711042C
:1059F000A2A71204A3A71304A4A71404A5A715041F
:105A0000A6A71604A8A71704A9A71804AAA71904EB
:105A1000ABA71A04ACA71B04ADA71C04AEA71D04BA
:105A2000AFA71E04B0A71F04B1A72004B2A721048A
:105A3000B3A72204B4A72304B5A72404B6A725045A
:105A4000B7A72604B8A72704B9A72804BAA729042A
:105A5000BBA72A04BCA72B04BDA72C04BEA72D04FA
:105A6000BFA72E04C0A72F04C1A73004D1A73104BB
:105A7000D2A73204D3A73304D4A73404D5A735045E
:105A8000D6A73604D8A73704D9A73804DAA739042B
:105A9000DBA73A04DCA73B04DDA73C04DEA73D04FA
:105AA000DFA73E04E0A73F04E1A74004E2A74104CA
:105AB000E3A74204E4A74304E5A74404E6A745049A
:105AC000E7A74604E8A74704E9A74804EAA749046A
:105AD000EBA74A04ECA74B04EDA74C04EEA74D043A
